{
  "contractName": "Consent",
  "abi": [
    {
      "inputs": [
        {
          "internalType": "string",
          "name": "_patientName",
          "type": "string"
        },
        {
          "internalType": "string",
          "name": "_surgeryType",
          "type": "string"
        },
        {
          "internalType": "string",
          "name": "_surgeryDate",
          "type": "string"
        },
        {
          "internalType": "string",
          "name": "_risks",
          "type": "string"
        },
        {
          "internalType": "address",
          "name": "_patientAddress",
          "type": "address"
        },
        {
          "internalType": "string",
          "name": "_surgeonIdentity",
          "type": "string"
        },
        {
          "internalType": "uint256",
          "name": "_validityPeriod",
          "type": "uint256"
        }
      ],
      "stateMutability": "nonpayable",
      "type": "constructor"
    },
    {
      "inputs": [],
      "name": "consentTimestamp",
      "outputs": [
        {
          "internalType": "uint256",
          "name": "",
          "type": "uint256"
        }
      ],
      "stateMutability": "view",
      "type": "function",
      "constant": true
    },
    {
      "inputs": [],
      "name": "isConsentSigned",
      "outputs": [
        {
          "internalType": "bool",
          "name": "",
          "type": "bool"
        }
      ],
      "stateMutability": "view",
      "type": "function",
      "constant": true
    },
    {
      "inputs": [],
      "name": "patientAddress",
      "outputs": [
        {
          "internalType": "address",
          "name": "",
          "type": "address"
        }
      ],
      "stateMutability": "view",
      "type": "function",
      "constant": true
    },
    {
      "inputs": [],
      "name": "patientName",
      "outputs": [
        {
          "internalType": "string",
          "name": "",
          "type": "string"
        }
      ],
      "stateMutability": "view",
      "type": "function",
      "constant": true
    },
    {
      "inputs": [],
      "name": "risks",
      "outputs": [
        {
          "internalType": "string",
          "name": "",
          "type": "string"
        }
      ],
      "stateMutability": "view",
      "type": "function",
      "constant": true
    },
    {
      "inputs": [],
      "name": "surgeonIdentity",
      "outputs": [
        {
          "internalType": "string",
          "name": "",
          "type": "string"
        }
      ],
      "stateMutability": "view",
      "type": "function",
      "constant": true
    },
    {
      "inputs": [],
      "name": "surgeryDate",
      "outputs": [
        {
          "internalType": "string",
          "name": "",
          "type": "string"
        }
      ],
      "stateMutability": "view",
      "type": "function",
      "constant": true
    },
    {
      "inputs": [],
      "name": "surgeryType",
      "outputs": [
        {
          "internalType": "string",
          "name": "",
          "type": "string"
        }
      ],
      "stateMutability": "view",
      "type": "function",
      "constant": true
    },
    {
      "inputs": [],
      "name": "validityPeriod",
      "outputs": [
        {
          "internalType": "uint256",
          "name": "",
          "type": "uint256"
        }
      ],
      "stateMutability": "view",
      "type": "function",
      "constant": true
    },
    {
      "inputs": [],
      "name": "signConsent",
      "outputs": [],
      "stateMutability": "nonpayable",
      "type": "function"
    },
    {
      "inputs": [],
      "name": "revokeConsent",
      "outputs": [],
      "stateMutability": "nonpayable",
      "type": "function"
    },
    {
      "inputs": [],
      "name": "getConsentDetails",
      "outputs": [
        {
          "internalType": "string",
          "name": "",
          "type": "string"
        },
        {
          "internalType": "string",
          "name": "",
          "type": "string"
        },
        {
          "internalType": "string",
          "name": "",
          "type": "string"
        },
        {
          "internalType": "string",
          "name": "",
          "type": "string"
        },
        {
          "internalType": "string",
          "name": "",
          "type": "string"
        },
        {
          "internalType": "uint256",
          "name": "",
          "type": "uint256"
        },
        {
          "internalType": "bool",
          "name": "",
          "type": "bool"
        }
      ],
      "stateMutability": "view",
      "type": "function",
      "constant": true
    }
  ],
  "bytecode": "0x60806040523480156200001157600080fd5b506040516200160438038062001604833981810160405281019062000037919062000334565b8660009081620000489190620006c3565b5085600190816200005a9190620006c3565b5084600290816200006c9190620006c3565b5083600390816200007e9190620006c3565b5082600460006101000a81548173ffffffffffffffffffffffffffffffffffffffff021916908373ffffffffffffffffffffffffffffffffffffffff1602179055508160059081620000d19190620006c3565b50806006819055506000600860006101000a81548160ff02191690831515021790555050505050505050620007aa565b6000604051905090565b600080fd5b600080fd5b600080fd5b600080fd5b6000601f19601f8301169050919050565b7f4e487b7100000000000000000000000000000000000000000000000000000000600052604160045260246000fd5b6200016a826200011f565b810181811067ffffffffffffffff821117156200018c576200018b62000130565b5b80604052505050565b6000620001a162000101565b9050620001af82826200015f565b919050565b600067ffffffffffffffff821115620001d257620001d162000130565b5b620001dd826200011f565b9050602081019050919050565b60005b838110156200020a578082015181840152602081019050620001ed565b60008484015250505050565b60006200022d6200022784620001b4565b62000195565b9050828152602081018484840111156200024c576200024b6200011a565b5b62000259848285620001ea565b509392505050565b600082601f83011262000279576200027862000115565b5b81516200028b84826020860162000216565b91505092915050565b600073ffffffffffffffffffffffffffffffffffffffff82169050919050565b6000620002c18262000294565b9050919050565b620002d381620002b4565b8114620002df57600080fd5b50565b600081519050620002f381620002c8565b92915050565b6000819050919050565b6200030e81620002f9565b81146200031a57600080fd5b50565b6000815190506200032e8162000303565b92915050565b600080600080600080600060e0888a0312156200035657620003556200010b565b5b600088015167ffffffffffffffff81111562000377576200037662000110565b5b620003858a828b0162000261565b975050602088015167ffffffffffffffff811115620003a957620003a862000110565b5b620003b78a828b0162000261565b965050604088015167ffffffffffffffff811115620003db57620003da62000110565b5b620003e98a828b0162000261565b955050606088015167ffffffffffffffff8111156200040d576200040c62000110565b5b6200041b8a828b0162000261565b94505060806200042e8a828b01620002e2565b93505060a088015167ffffffffffffffff81111562000452576200045162000110565b5b620004608a828b0162000261565b92505060c0620004738a828b016200031d565b91505092959891949750929550565b600081519050919050565b7f4e487b7100000000000000000000000000000000000000000000000000000000600052602260045260246000fd5b60006002820490506001821680620004d557607f821691505b602082108103620004eb57620004ea6200048d565b5b50919050565b60008190508160005260206000209050919050565b60006020601f8301049050919050565b600082821b905092915050565b600060088302620005557fffffffffffffffffffffffffffffffffffffffffffffffffffffffffffffffff8262000516565b62000561868362000516565b95508019841693508086168417925050509392505050565b6000819050919050565b6000620005a46200059e6200059884620002f9565b62000579565b620002f9565b9050919050565b6000819050919050565b620005c08362000583565b620005d8620005cf82620005ab565b84845462000523565b825550505050565b600090565b620005ef620005e0565b620005fc818484620005b5565b505050565b5b81811015620006245762000618600082620005e5565b60018101905062000602565b5050565b601f82111562000673576200063d81620004f1565b620006488462000506565b8101602085101562000658578190505b62000670620006678562000506565b83018262000601565b50505b505050565b600082821c905092915050565b6000620006986000198460080262000678565b1980831691505092915050565b6000620006b3838362000685565b9150826002028217905092915050565b620006ce8262000482565b67ffffffffffffffff811115620006ea57620006e962000130565b5b620006f68254620004bc565b6200070382828562000628565b600060209050601f8311600181146200073b576000841562000726578287015190505b620007328582620006a5565b865550620007a2565b601f1984166200074b86620004f1565b60005b8281101562000775578489015182556001820191506020850194506020810190506200074e565b8683101562000795578489015162000791601f89168262000685565b8355505b6001600288020188555050505b505050505050565b610e4a80620007ba6000396000f3fe608060405234801561001057600080fd5b50600436106100b45760003560e01c8063c1f7e5ef11610071578063c1f7e5ef14610159578063d2327ee414610177578063d9297c0b1461019b578063f9d344c9146101b9578063f9d7ff89146101d7578063ff4c4d54146101f5576100b4565b806304d5859c146100b95780630c2351e6146100c3578063171fc990146100e15780631e6c3850146100ff57806375bab4a41461011d57806398f6f0e11461013b575b600080fd5b6100c16101ff565b005b6100cb610304565b6040516100d89190610a47565b60405180910390f35b6100e9610392565b6040516100f69190610a47565b60405180910390f35b610107610420565b6040516101149190610a82565b60405180910390f35b610125610426565b6040516101329190610a47565b60405180910390f35b6101436104b4565b6040516101509190610a47565b60405180910390f35b610161610542565b60405161016e9190610a82565b60405180910390f35b61017f610548565b6040516101929796959493929190610ab8565b60405180910390f35b6101a3610843565b6040516101b09190610b4a565b60405180910390f35b6101c1610856565b6040516101ce9190610ba6565b60405180910390f35b6101df61087c565b6040516101ec9190610a47565b60405180910390f35b6101fd61090a565b005b600460009054906101000a900473ffffffffffffffffffffffffffffffffffffffff1673ffffffffffffffffffffffffffffffffffffffff163373ffffffffffffffffffffffffffffffffffffffff161461028f576040517f08c379a000000000000000000000000000000000000000000000000000000000815260040161028690610c33565b60405180910390fd5b60065460075461029f9190610c82565b42106102e0576040517f08c379a00000000000000000000000000000000000000000000000000000000081526004016102d790610d02565b60405180910390fd5b6001600860006101000a81548160ff02191690831515021790555042600781905550565b6001805461031190610d51565b80601f016020809104026020016040519081016040528092919081815260200182805461033d90610d51565b801561038a5780601f1061035f5761010080835404028352916020019161038a565b820191906000526020600020905b81548152906001019060200180831161036d57829003601f168201915b505050505081565b6005805461039f90610d51565b80601f01602080910402602001604051908101604052809291908181526020018280546103cb90610d51565b80156104185780601f106103ed57610100808354040283529160200191610418565b820191906000526020600020905b8154815290600101906020018083116103fb57829003601f168201915b505050505081565b60065481565b6002805461043390610d51565b80601f016020809104026020016040519081016040528092919081815260200182805461045f90610d51565b80156104ac5780601f10610481576101008083540402835291602001916104ac565b820191906000526020600020905b81548152906001019060200180831161048f57829003601f168201915b505050505081565b600080546104c190610d51565b80601f01602080910402602001604051908101604052809291908181526020018280546104ed90610d51565b801561053a5780601f1061050f5761010080835404028352916020019161053a565b820191906000526020600020905b81548152906001019060200180831161051d57829003601f168201915b505050505081565b60075481565b606080606080606060008060006001600260036005600754600860009054906101000a900460ff1686805461057c90610d51565b80601f01602080910402602001604051908101604052809291908181526020018280546105a890610d51565b80156105f55780601f106105ca576101008083540402835291602001916105f5565b820191906000526020600020905b8154815290600101906020018083116105d857829003601f168201915b5050505050965085805461060890610d51565b80601f016020809104026020016040519081016040528092919081815260200182805461063490610d51565b80156106815780601f1061065657610100808354040283529160200191610681565b820191906000526020600020905b81548152906001019060200180831161066457829003601f168201915b5050505050955084805461069490610d51565b80601f01602080910402602001604051908101604052809291908181526020018280546106c090610d51565b801561070d5780601f106106e25761010080835404028352916020019161070d565b820191906000526020600020905b8154815290600101906020018083116106f057829003601f168201915b5050505050945083805461072090610d51565b80601f016020809104026020016040519081016040528092919081815260200182805461074c90610d51565b80156107995780601f1061076e57610100808354040283529160200191610799565b820191906000526020600020905b81548152906001019060200180831161077c57829003601f168201915b505050505093508280546107ac90610d51565b80601f01602080910402602001604051908101604052809291908181526020018280546107d890610d51565b80156108255780601f106107fa57610100808354040283529160200191610825565b820191906000526020600020905b81548152906001019060200180831161080857829003601f168201915b50505050509250965096509650965096509650965090919293949596565b600860009054906101000a900460ff1681565b600460009054906101000a900473ffffffffffffffffffffffffffffffffffffffff1681565b6003805461088990610d51565b80601f01602080910402602001604051908101604052809291908181526020018280546108b590610d51565b80156109025780601f106108d757610100808354040283529160200191610902565b820191906000526020600020905b8154815290600101906020018083116108e557829003601f168201915b505050505081565b600460009054906101000a900473ffffffffffffffffffffffffffffffffffffffff1673ffffffffffffffffffffffffffffffffffffffff163373ffffffffffffffffffffffffffffffffffffffff161461099a576040517f08c379a000000000000000000000000000000000000000000000000000000000815260040161099190610df4565b60405180910390fd5b6000600860006101000a81548160ff021916908315150217905550565b600081519050919050565b600082825260208201905092915050565b60005b838110156109f15780820151818401526020810190506109d6565b60008484015250505050565b6000601f19601f8301169050919050565b6000610a19826109b7565b610a2381856109c2565b9350610a338185602086016109d3565b610a3c816109fd565b840191505092915050565b60006020820190508181036000830152610a618184610a0e565b905092915050565b6000819050919050565b610a7c81610a69565b82525050565b6000602082019050610a976000830184610a73565b92915050565b60008115159050919050565b610ab281610a9d565b82525050565b600060e0820190508181036000830152610ad2818a610a0e565b90508181036020830152610ae68189610a0e565b90508181036040830152610afa8188610a0e565b90508181036060830152610b0e8187610a0e565b90508181036080830152610b228186610a0e565b9050610b3160a0830185610a73565b610b3e60c0830184610aa9565b98975050505050505050565b6000602082019050610b5f6000830184610aa9565b92915050565b600073ffffffffffffffffffffffffffffffffffffffff82169050919050565b6000610b9082610b65565b9050919050565b610ba081610b85565b82525050565b6000602082019050610bbb6000830184610b97565b92915050565b7f4f6e6c79207468652070617469656e742063616e207369676e2074686520636f60008201527f6e73656e74000000000000000000000000000000000000000000000000000000602082015250565b6000610c1d6025836109c2565b9150610c2882610bc1565b604082019050919050565b60006020820190508181036000830152610c4c81610c10565b9050919050565b7f4e487b7100000000000000000000000000000000000000000000000000000000600052601160045260246000fd5b6000610c8d82610a69565b9150610c9883610a69565b9250828201905080821115610cb057610caf610c53565b5b92915050565b7f436f6e73656e7420686173206578706972656400000000000000000000000000600082015250565b6000610cec6013836109c2565b9150610cf782610cb6565b602082019050919050565b60006020820190508181036000830152610d1b81610cdf565b9050919050565b7f4e487b7100000000000000000000000000000000000000000000000000000000600052602260045260246000fd5b60006002820490506001821680610d6957607f821691505b602082108103610d7c57610d7b610d22565b5b50919050565b7f4f6e6c79207468652070617469656e742063616e207265766f6b65207468656960008201527f7220636f6e73656e740000000000000000000000000000000000000000000000602082015250565b6000610dde6029836109c2565b9150610de982610d82565b604082019050919050565b60006020820190508181036000830152610e0d81610dd1565b905091905056fea26469706673582212208500ea5a4303645fc2f6fc36e3ff5becabb1dabf6ba701db27a5aeb1e956c61464736f6c63430008130033",
  "immutableReferences": {},
  "source": "// SPDX-License-Identifier: GPL-3.0\n\npragma solidity >=0.7.0 <0.9.0;\n\ncontract Consent {\n    string public patientName;\n    string public surgeryType;\n    string public surgeryDate;\n    string public risks;\n    address public patientAddress;\n    string public surgeonIdentity; // surgeon's Ethereum address or digital certificate\n    uint public validityPeriod; // in seconds\n    uint public consentTimestamp; // timestamp when consent was signed\n    bool public isConsentSigned;\n    \n    constructor(string memory _patientName, string memory _surgeryType, string memory _surgeryDate, string memory _risks, address _patientAddress, string memory _surgeonIdentity, uint _validityPeriod) {\n        patientName = _patientName;\n        surgeryType = _surgeryType;\n        surgeryDate = _surgeryDate;\n        risks = _risks;\n        patientAddress = _patientAddress;\n        surgeonIdentity = _surgeonIdentity;\n        validityPeriod = _validityPeriod;\n        isConsentSigned = false;\n    }\n    \n    function signConsent() public {\n        require(msg.sender == patientAddress, \"Only the patient can sign the consent\");\n        require(block.timestamp < consentTimestamp + validityPeriod, \"Consent has expired\");\n        isConsentSigned = true;\n        consentTimestamp = block.timestamp;\n    }\n    \n    function revokeConsent() public {\n        require(msg.sender == patientAddress, \"Only the patient can revoke their consent\");\n        isConsentSigned = false;\n    }\n    \n    function getConsentDetails() public view returns (string memory, string memory, string memory, string memory, string memory, uint, bool) {\n        return (patientName, surgeryType, surgeryDate, risks, surgeonIdentity, consentTimestamp, isConsentSigned);\n    }\n}\n",
  "sourcePath": "/home/awwal/smartcontract/consent/contracts/Consent.sol",
  "compiler": {
    "name": "solc",
    "version": "0.8.19+commit.7dd6d404.Emscripten.clang"
  },
  "schemaVersion": "3.4.13",
  "updatedAt": "2023-03-28T05:33:13.607Z",
  "networkType": "ethereum",
  "devdoc": {
    "kind": "dev",
    "methods": {},
    "version": 1
  },
  "userdoc": {
    "kind": "user",
    "methods": {},
    "version": 1
  }
}